{
  "_format": "hh-sol-artifact-1",
  "contractName": "Faucet",
  "sourceName": "contracts/Faucet.sol",
  "abi": [
    {
      "inputs": [
        {
          "internalType": "address",
          "name": "tokenAddress",
          "type": "address"
        }
      ],
      "stateMutability": "payable",
      "type": "constructor"
    },
    {
      "anonymous": false,
      "inputs": [
        {
          "indexed": false,
          "internalType": "address",
          "name": "from",
          "type": "address"
        },
        {
          "indexed": false,
          "internalType": "uint256",
          "name": "amount",
          "type": "uint256"
        }
      ],
      "name": "Deposite",
      "type": "event"
    },
    {
      "inputs": [],
      "name": "LockTime",
      "outputs": [
        {
          "internalType": "uint256",
          "name": "",
          "type": "uint256"
        }
      ],
      "stateMutability": "view",
      "type": "function"
    },
    {
      "inputs": [],
      "name": "getBalance",
      "outputs": [
        {
          "internalType": "uint256",
          "name": "",
          "type": "uint256"
        }
      ],
      "stateMutability": "view",
      "type": "function"
    },
    {
      "inputs": [],
      "name": "requestTokens",
      "outputs": [],
      "stateMutability": "nonpayable",
      "type": "function"
    },
    {
      "inputs": [
        {
          "internalType": "uint256",
          "name": "amount",
          "type": "uint256"
        }
      ],
      "name": "setLockTime",
      "outputs": [],
      "stateMutability": "nonpayable",
      "type": "function"
    },
    {
      "inputs": [
        {
          "internalType": "uint256",
          "name": "amount",
          "type": "uint256"
        }
      ],
      "name": "setwithDrawAmount",
      "outputs": [],
      "stateMutability": "nonpayable",
      "type": "function"
    },
    {
      "inputs": [],
      "name": "token",
      "outputs": [
        {
          "internalType": "contract IERC20",
          "name": "",
          "type": "address"
        }
      ],
      "stateMutability": "view",
      "type": "function"
    },
    {
      "inputs": [],
      "name": "withDraw",
      "outputs": [],
      "stateMutability": "nonpayable",
      "type": "function"
    },
    {
      "inputs": [],
      "name": "withdrawalAmount",
      "outputs": [
        {
          "internalType": "uint256",
          "name": "",
          "type": "uint256"
        }
      ],
      "stateMutability": "view",
      "type": "function"
    },
    {
      "stateMutability": "payable",
      "type": "receive"
    }
  ],
  "bytecode": "0x6080604052674563918244f40000600255603c600355604051610f23380380610f2383398181016040528101906100369190610120565b80600160006101000a81548173ffffffffffffffffffffffffffffffffffffffff021916908373ffffffffffffffffffffffffffffffffffffffff160217905550336000806101000a81548173ffffffffffffffffffffffffffffffffffffffff021916908373ffffffffffffffffffffffffffffffffffffffff1602179055505061014d565b600080fd5b600073ffffffffffffffffffffffffffffffffffffffff82169050919050565b60006100ed826100c2565b9050919050565b6100fd816100e2565b811461010857600080fd5b50565b60008151905061011a816100f4565b92915050565b600060208284031215610136576101356100bd565b5b60006101448482850161010b565b91505092915050565b610dc78061015c6000396000f3fe60806040526004361061007f5760003560e01c806354cf2d791161004e57806354cf2d7914610146578063ae04d45d14610171578063e6e268f41461019a578063fc0c546a146101c5576100bf565b80630fdb1c10146100c457806312065fe0146100db57806332ccd3d114610106578063359cf2b71461012f576100bf565b366100bf577f67d0e209d76ed24370106b1fd0fc1c82de411f7b72ba3d92736b75fe4add443a33346040516100b5929190610901565b60405180910390a1005b600080fd5b3480156100d057600080fd5b506100d96101f0565b005b3480156100e757600080fd5b506100f06103bc565b6040516100fd919061092a565b60405180910390f35b34801561011257600080fd5b5061012d60048036038101906101289190610976565b61045f565b005b34801561013b57600080fd5b5061014461050a565b005b34801561015257600080fd5b5061015b6107d1565b604051610168919061092a565b60405180910390f35b34801561017d57600080fd5b5061019860048036038101906101939190610976565b6107d7565b005b3480156101a657600080fd5b506101af61087b565b6040516101bc919061092a565b60405180910390f35b3480156101d157600080fd5b506101da610881565b6040516101e79190610a02565b60405180910390f35b60008054906101000a900473ffffffffffffffffffffffffffffffffffffffff1673ffffffffffffffffffffffffffffffffffffffff163373ffffffffffffffffffffffffffffffffffffffff161461027e576040517f08c379a000000000000000000000000000000000000000000000000000000000815260040161027590610a7a565b60405180910390fd5b600160009054906101000a900473ffffffffffffffffffffffffffffffffffffffff1673ffffffffffffffffffffffffffffffffffffffff1663a9059cbb33600160009054906101000a900473ffffffffffffffffffffffffffffffffffffffff1673ffffffffffffffffffffffffffffffffffffffff166370a08231306040518263ffffffff1660e01b81526004016103189190610a9a565b602060405180830381865afa158015610335573d6000803e3d6000fd5b505050506040513d601f19601f820116820180604052508101906103599190610aca565b6040518363ffffffff1660e01b8152600401610376929190610901565b6020604051808303816000875af1158015610395573d6000803e3d6000fd5b505050506040513d601f19601f820116820180604052508101906103b99190610b2f565b50565b6000600160009054906101000a900473ffffffffffffffffffffffffffffffffffffffff1673ffffffffffffffffffffffffffffffffffffffff166370a08231306040518263ffffffff1660e01b81526004016104199190610a9a565b602060405180830381865afa158015610436573d6000803e3d6000fd5b505050506040513d601f19601f8201168201806040525081019061045a9190610aca565b905090565b60008054906101000a900473ffffffffffffffffffffffffffffffffffffffff1673ffffffffffffffffffffffffffffffffffffffff163373ffffffffffffffffffffffffffffffffffffffff16146104ed576040517f08c379a00000000000000000000000000000000000000000000000000000000081526004016104e490610a7a565b60405180910390fd5b670de0b6b3a7640000816105019190610b8b565b60028190555050565b600073ffffffffffffffffffffffffffffffffffffffff163373ffffffffffffffffffffffffffffffffffffffff1603610579576040517f08c379a000000000000000000000000000000000000000000000000000000000815260040161057090610c3f565b60405180910390fd5b600254600160009054906101000a900473ffffffffffffffffffffffffffffffffffffffff1673ffffffffffffffffffffffffffffffffffffffff166370a08231306040518263ffffffff1660e01b81526004016105d79190610a9a565b602060405180830381865afa1580156105f4573d6000803e3d6000fd5b505050506040513d601f19601f820116820180604052508101906106189190610aca565b1015610659576040517f08c379a000000000000000000000000000000000000000000000000000000000815260040161065090610cd1565b60405180910390fd5b600460003373ffffffffffffffffffffffffffffffffffffffff1673ffffffffffffffffffffffffffffffffffffffff168152602001908152602001600020544210156106db576040517f08c379a00000000000000000000000000000000000000000000000000000000081526004016106d290610d3d565b60405180910390fd5b600354426106e99190610d5d565b600460003373ffffffffffffffffffffffffffffffffffffffff1673ffffffffffffffffffffffffffffffffffffffff16815260200190815260200160002081905550600160009054906101000a900473ffffffffffffffffffffffffffffffffffffffff1673ffffffffffffffffffffffffffffffffffffffff1663a9059cbb336002546040518363ffffffff1660e01b815260040161078b929190610901565b6020604051808303816000875af11580156107aa573d6000803e3d6000fd5b505050506040513d601f19601f820116820180604052508101906107ce9190610b2f565b50565b60035481565b60008054906101000a900473ffffffffffffffffffffffffffffffffffffffff1673ffffffffffffffffffffffffffffffffffffffff163373ffffffffffffffffffffffffffffffffffffffff1614610865576040517f08c379a000000000000000000000000000000000000000000000000000000000815260040161085c90610a7a565b60405180910390fd5b603c816108729190610b8b565b60038190555050565b60025481565b600160009054906101000a900473ffffffffffffffffffffffffffffffffffffffff1681565b600073ffffffffffffffffffffffffffffffffffffffff82169050919050565b60006108d2826108a7565b9050919050565b6108e2816108c7565b82525050565b6000819050919050565b6108fb816108e8565b82525050565b600060408201905061091660008301856108d9565b61092360208301846108f2565b9392505050565b600060208201905061093f60008301846108f2565b92915050565b600080fd5b610953816108e8565b811461095e57600080fd5b50565b6000813590506109708161094a565b92915050565b60006020828403121561098c5761098b610945565b5b600061099a84828501610961565b91505092915050565b6000819050919050565b60006109c86109c36109be846108a7565b6109a3565b6108a7565b9050919050565b60006109da826109ad565b9050919050565b60006109ec826109cf565b9050919050565b6109fc816109e1565b82525050565b6000602082019050610a1760008301846109f3565b92915050565b600082825260208201905092915050565b7f4f776e65722043616e2043616c6c20546869732066756e6374696f6e00000000600082015250565b6000610a64601c83610a1d565b9150610a6f82610a2e565b602082019050919050565b60006020820190508181036000830152610a9381610a57565b9050919050565b6000602082019050610aaf60008301846108d9565b92915050565b600081519050610ac48161094a565b92915050565b600060208284031215610ae057610adf610945565b5b6000610aee84828501610ab5565b91505092915050565b60008115159050919050565b610b0c81610af7565b8114610b1757600080fd5b50565b600081519050610b2981610b03565b92915050565b600060208284031215610b4557610b44610945565b5b6000610b5384828501610b1a565b91505092915050565b7f4e487b7100000000000000000000000000000000000000000000000000000000600052601160045260246000fd5b6000610b96826108e8565b9150610ba1836108e8565b9250828202610baf816108e8565b91508282048414831517610bc657610bc5610b5c565b5b5092915050565b7f52657175657374204d757374204e6f74204f726967696e6174652046726f6d2060008201527f5a65726f204163636f756e740000000000000000000000000000000000000000602082015250565b6000610c29602c83610a1d565b9150610c3482610bcd565b604082019050919050565b60006020820190508181036000830152610c5881610c1c565b9050919050565b7f46617563657420446f65736e6f7420486176652053756666696369656e74204160008201527f6d6f756e7420746f20446973706c617900000000000000000000000000000000602082015250565b6000610cbb603083610a1d565b9150610cc682610c5f565b604082019050919050565b60006020820190508181036000830152610cea81610cae565b9050919050565b7f496e73756666696369656e742054696d6520456c617073656400000000000000600082015250565b6000610d27601983610a1d565b9150610d3282610cf1565b602082019050919050565b60006020820190508181036000830152610d5681610d1a565b9050919050565b6000610d68826108e8565b9150610d73836108e8565b9250828201905080821115610d8b57610d8a610b5c565b5b9291505056fea264697066735822122035ed97f656a89f3064d6392f515f6386fb2286d13a8b937237fb8670f4aeccd364736f6c63430008140033",
  "linkReferences": {},
  "deployedLinkReferences": {}
}